{
    "contractName": "NFTBot",
    "abi": [
        {
            "inputs": [
                {
                    "internalType": "string",
                    "name": "_name",
                    "type": "string"
                },
                {
                    "internalType": "string",
                    "name": "_symbol",
                    "type": "string"
                }
            ],
            "stateMutability": "nonpayable",
            "type": "constructor"
        },
        {
            "inputs": [
                {
                    "internalType": "address",
                    "name": "sender",
                    "type": "address"
                },
                {
                    "internalType": "uint256",
                    "name": "tokenId",
                    "type": "uint256"
                },
                {
                    "internalType": "address",
                    "name": "owner",
                    "type": "address"
                }
            ],
            "name": "ERC721IncorrectOwner",
            "type": "error"
        },
        {
            "inputs": [
                {
                    "internalType": "address",
                    "name": "operator",
                    "type": "address"
                },
                {
                    "internalType": "uint256",
                    "name": "tokenId",
                    "type": "uint256"
                }
            ],
            "name": "ERC721InsufficientApproval",
            "type": "error"
        },
        {
            "inputs": [
                {
                    "internalType": "address",
                    "name": "approver",
                    "type": "address"
                }
            ],
            "name": "ERC721InvalidApprover",
            "type": "error"
        },
        {
            "inputs": [
                {
                    "internalType": "address",
                    "name": "operator",
                    "type": "address"
                }
            ],
            "name": "ERC721InvalidOperator",
            "type": "error"
        },
        {
            "inputs": [
                {
                    "internalType": "address",
                    "name": "owner",
                    "type": "address"
                }
            ],
            "name": "ERC721InvalidOwner",
            "type": "error"
        },
        {
            "inputs": [
                {
                    "internalType": "address",
                    "name": "receiver",
                    "type": "address"
                }
            ],
            "name": "ERC721InvalidReceiver",
            "type": "error"
        },
        {
            "inputs": [
                {
                    "internalType": "address",
                    "name": "sender",
                    "type": "address"
                }
            ],
            "name": "ERC721InvalidSender",
            "type": "error"
        },
        {
            "inputs": [
                {
                    "internalType": "uint256",
                    "name": "tokenId",
                    "type": "uint256"
                }
            ],
            "name": "ERC721NonexistentToken",
            "type": "error"
        },
        {
            "inputs": [
                {
                    "internalType": "address",
                    "name": "owner",
                    "type": "address"
                }
            ],
            "name": "OwnableInvalidOwner",
            "type": "error"
        },
        {
            "inputs": [
                {
                    "internalType": "address",
                    "name": "account",
                    "type": "address"
                }
            ],
            "name": "OwnableUnauthorizedAccount",
            "type": "error"
        },
        {
            "anonymous": false,
            "inputs": [
                {
                    "indexed": true,
                    "internalType": "address",
                    "name": "owner",
                    "type": "address"
                },
                {
                    "indexed": true,
                    "internalType": "address",
                    "name": "approved",
                    "type": "address"
                },
                {
                    "indexed": true,
                    "internalType": "uint256",
                    "name": "tokenId",
                    "type": "uint256"
                }
            ],
            "name": "Approval",
            "type": "event"
        },
        {
            "anonymous": false,
            "inputs": [
                {
                    "indexed": true,
                    "internalType": "address",
                    "name": "owner",
                    "type": "address"
                },
                {
                    "indexed": true,
                    "internalType": "address",
                    "name": "operator",
                    "type": "address"
                },
                {
                    "indexed": false,
                    "internalType": "bool",
                    "name": "approved",
                    "type": "bool"
                }
            ],
            "name": "ApprovalForAll",
            "type": "event"
        },
        {
            "anonymous": false,
            "inputs": [
                {
                    "indexed": true,
                    "internalType": "address",
                    "name": "previousOwner",
                    "type": "address"
                },
                {
                    "indexed": true,
                    "internalType": "address",
                    "name": "newOwner",
                    "type": "address"
                }
            ],
            "name": "OwnershipTransferred",
            "type": "event"
        },
        {
            "anonymous": false,
            "inputs": [
                {
                    "indexed": true,
                    "internalType": "address",
                    "name": "to",
                    "type": "address"
                },
                {
                    "indexed": false,
                    "internalType": "uint256",
                    "name": "tokenId",
                    "type": "uint256"
                }
            ],
            "name": "TokenMinted",
            "type": "event"
        },
        {
            "anonymous": false,
            "inputs": [
                {
                    "indexed": true,
                    "internalType": "address",
                    "name": "from",
                    "type": "address"
                },
                {
                    "indexed": true,
                    "internalType": "address",
                    "name": "to",
                    "type": "address"
                },
                {
                    "indexed": true,
                    "internalType": "uint256",
                    "name": "tokenId",
                    "type": "uint256"
                }
            ],
            "name": "Transfer",
            "type": "event"
        },
        {
            "inputs": [],
            "name": "_lastTokenId",
            "outputs": [
                {
                    "internalType": "uint256",
                    "name": "",
                    "type": "uint256"
                }
            ],
            "stateMutability": "view",
            "type": "function"
        },
        {
            "inputs": [
                {
                    "internalType": "address",
                    "name": "to",
                    "type": "address"
                },
                {
                    "internalType": "uint256",
                    "name": "tokenId",
                    "type": "uint256"
                }
            ],
            "name": "approve",
            "outputs": [],
            "stateMutability": "nonpayable",
            "type": "function"
        },
        {
            "inputs": [
                {
                    "internalType": "address",
                    "name": "owner",
                    "type": "address"
                }
            ],
            "name": "balanceOf",
            "outputs": [
                {
                    "internalType": "uint256",
                    "name": "",
                    "type": "uint256"
                }
            ],
            "stateMutability": "view",
            "type": "function"
        },
        {
            "inputs": [
                {
                    "internalType": "uint256",
                    "name": "tokenId",
                    "type": "uint256"
                }
            ],
            "name": "getApproved",
            "outputs": [
                {
                    "internalType": "address",
                    "name": "",
                    "type": "address"
                }
            ],
            "stateMutability": "view",
            "type": "function"
        },
        {
            "inputs": [
                {
                    "internalType": "address",
                    "name": "owner",
                    "type": "address"
                },
                {
                    "internalType": "address",
                    "name": "operator",
                    "type": "address"
                }
            ],
            "name": "isApprovedForAll",
            "outputs": [
                {
                    "internalType": "bool",
                    "name": "",
                    "type": "bool"
                }
            ],
            "stateMutability": "view",
            "type": "function"
        },
        {
            "inputs": [
                {
                    "internalType": "address",
                    "name": "to",
                    "type": "address"
                },
                {
                    "internalType": "string",
                    "name": "_uri",
                    "type": "string"
                }
            ],
            "name": "mint",
            "outputs": [],
            "stateMutability": "nonpayable",
            "type": "function"
        },
        {
            "inputs": [],
            "name": "name",
            "outputs": [
                {
                    "internalType": "string",
                    "name": "",
                    "type": "string"
                }
            ],
            "stateMutability": "view",
            "type": "function"
        },
        {
            "inputs": [],
            "name": "owner",
            "outputs": [
                {
                    "internalType": "address",
                    "name": "",
                    "type": "address"
                }
            ],
            "stateMutability": "view",
            "type": "function"
        },
        {
            "inputs": [
                {
                    "internalType": "uint256",
                    "name": "tokenId",
                    "type": "uint256"
                }
            ],
            "name": "ownerOf",
            "outputs": [
                {
                    "internalType": "address",
                    "name": "",
                    "type": "address"
                }
            ],
            "stateMutability": "view",
            "type": "function"
        },
        {
            "inputs": [],
            "name": "renounceOwnership",
            "outputs": [],
            "stateMutability": "nonpayable",
            "type": "function"
        },
        {
            "inputs": [
                {
                    "internalType": "address",
                    "name": "from",
                    "type": "address"
                },
                {
                    "internalType": "address",
                    "name": "to",
                    "type": "address"
                },
                {
                    "internalType": "uint256",
                    "name": "tokenId",
                    "type": "uint256"
                }
            ],
            "name": "safeTransferFrom",
            "outputs": [],
            "stateMutability": "nonpayable",
            "type": "function"
        },
        {
            "inputs": [
                {
                    "internalType": "address",
                    "name": "from",
                    "type": "address"
                },
                {
                    "internalType": "address",
                    "name": "to",
                    "type": "address"
                },
                {
                    "internalType": "uint256",
                    "name": "tokenId",
                    "type": "uint256"
                },
                {
                    "internalType": "bytes",
                    "name": "data",
                    "type": "bytes"
                }
            ],
            "name": "safeTransferFrom",
            "outputs": [],
            "stateMutability": "nonpayable",
            "type": "function"
        },
        {
            "inputs": [
                {
                    "internalType": "address",
                    "name": "operator",
                    "type": "address"
                },
                {
                    "internalType": "bool",
                    "name": "approved",
                    "type": "bool"
                }
            ],
            "name": "setApprovalForAll",
            "outputs": [],
            "stateMutability": "nonpayable",
            "type": "function"
        },
        {
            "inputs": [
                {
                    "internalType": "bytes4",
                    "name": "interfaceId",
                    "type": "bytes4"
                }
            ],
            "name": "supportsInterface",
            "outputs": [
                {
                    "internalType": "bool",
                    "name": "",
                    "type": "bool"
                }
            ],
            "stateMutability": "view",
            "type": "function"
        },
        {
            "inputs": [],
            "name": "symbol",
            "outputs": [
                {
                    "internalType": "string",
                    "name": "",
                    "type": "string"
                }
            ],
            "stateMutability": "view",
            "type": "function"
        },
        {
            "inputs": [
                {
                    "internalType": "uint256",
                    "name": "_tokenId",
                    "type": "uint256"
                }
            ],
            "name": "tokenURI",
            "outputs": [
                {
                    "internalType": "string",
                    "name": "",
                    "type": "string"
                }
            ],
            "stateMutability": "view",
            "type": "function"
        },
        {
            "inputs": [
                {
                    "internalType": "address",
                    "name": "from",
                    "type": "address"
                },
                {
                    "internalType": "address",
                    "name": "to",
                    "type": "address"
                },
                {
                    "internalType": "uint256",
                    "name": "tokenId",
                    "type": "uint256"
                }
            ],
            "name": "transferFrom",
            "outputs": [],
            "stateMutability": "nonpayable",
            "type": "function"
        },
        {
            "inputs": [
                {
                    "internalType": "address",
                    "name": "newOwner",
                    "type": "address"
                }
            ],
            "name": "transferOwnership",
            "outputs": [],
            "stateMutability": "nonpayable",
            "type": "function"
        }
    ],
    "bytecode": "6080604052346200037b5762001537803803806200001d816200037f565b92833981016040828203126200037b5781516001600160401b0392908381116200037b57826200004f918301620003a5565b90602092838201518581116200037b576200006b9201620003a5565b92815181811162000367575f938454916001948584811c941680156200035c575b8385101462000348578190601f94858111620002f5575b5083908583116001146200029257889262000286575b50505f19600383901b1c191690851b1785555b8551928311620002725783548481811c9116801562000267575b8282101462000253578281116200020b575b5080918311600114620001a657508394829394926200019a575b50505f19600383901b1c191690821b1790555b3315620001825760068054336001600160a01b031982168117909255604051926001600160a01b03909116907f8be0079c531659141344cd1fd0a4f28419497f9722a3daafe3b4186f6b6457e09080a36111219081620004168239f35b60249060405190631e4fbdf760e01b82526004820152fd5b015190505f8062000112565b90601f198316958486528286209286905b888210620001f35750508385969710620001da575b505050811b01905562000125565b01515f1960f88460031b161c191690555f8080620001cc565b808785968294968601518155019501930190620001b7565b8486528186208380860160051c82019284871062000249575b0160051c019085905b8281106200023d575050620000f8565b8781550185906200022d565b9250819262000224565b634e487b7160e01b86526022600452602486fd5b90607f1690620000e6565b634e487b7160e01b85526041600452602485fd5b015190505f80620000b9565b8880528489208894509190601f1984168a5b87828210620002de5750508411620002c5575b505050811b018555620000cc565b01515f1960f88460031b161c191690555f8080620002b7565b8385015186558b97909501949384019301620002a4565b9091508780528388208580850160051c8201928686106200033e575b918991869594930160051c01915b8281106200032f575050620000a3565b8a81558594508991016200031f565b9250819262000311565b634e487b7160e01b87526022600452602487fd5b93607f16936200008c565b634e487b7160e01b5f52604160045260245ffd5b5f80fd5b6040519190601f01601f191682016001600160401b038111838210176200036757604052565b919080601f840112156200037b5782516001600160401b0381116200036757602090620003db601f8201601f191683016200037f565b928184528282870101116200037b575f5b818110620004015750825f9394955001015290565b8581018301518482018401528201620003ec56fe60806040818152600480361015610014575f80fd5b5f92833560e01c90816301ffc9a714610bf35750806306fdde0314610b4b578063081812fc14610b10578063095ea7b314610a3457806323b872dd14610a1c57806342842e0e146109ed5780636352211e146109bc57806370a0823114610967578063715018a6146109075780638da5cb5b146108de57806395d89b41146107fb578063a22cb4651461075a578063b88d4fde146106c6578063c4e9bad3146106a7578063c87b56dd146105c6578063d0def521146101ca578063e985e9c5146101785763f2fde38b146100e6575f80fd5b34610174576020366003190112610174576100ff610c9d565b90610108610da8565b6001600160a01b0391821692831561015e575050600654826bffffffffffffffffffffffff60a01b821617600655167f8be0079c531659141344cd1fd0a4f28419497f9722a3daafe3b4186f6b6457e08380a380f35b51631e4fbdf760e01b8152908101849052602490fd5b8280fd5b5050346101c657806003193601126101c65760ff81602093610198610c9d565b6101a0610cb7565b6001600160a01b0391821683526005875283832091168252855220549151911615158152f35b5080fd5b5090346101745780600319360112610174576101e4610c9d565b90602480359367ffffffffffffffff938486116105c257366023870112156105c257858201359485116105c257368386880101116105c257610224610da8565b600754956001968781018091116105b057806007558852602095600887528085878b20936102528554610d70565b601f811161055b575b508b90601f84116001146104f2578c936104e5575b5050505f19600383901b1c191690881b1790555b6007549084519061029482610d02565b8882526001600160a01b03818116989089156104cf57848b5260028952878b2054168015159185918b918a8e60038e8861049f575b868352522080549091019055828d5260028b52898d2080546001600160a01b031916831790557fddf252ad1be2c89b69c2b068fc378daa952ba7f163c4a11628f55a4df523b3ef8d80a4610488573b61034e575b87877fb9144c96c86541f6fa89c9f2f02495cccf4b08cd6643e26d34ee00aa586558a888886007549051908152a280f35b9085888561038d869a99979b969589519586948594630a85bd0160e11b998a875233908701528501526044840152608060648401526084830190610c5f565b0381868a5af1839181610444575b506103f05750503d156103e8573d6103b281610d54565b906103bf85519283610d32565b81528091833d92013e5b805191826103e5575050505191633250574960e11b8352820152fd5b01fd5b5060606103c9565b63ffffffff60e09894969793981b160361043057507fb9144c96c86541f6fa89c9f2f02495cccf4b08cd6643e26d34ee00aa586558a890505f808061031d565b8251633250574960e11b8152908101859052fd5b9091508481813d8311610481575b61045c8183610d32565b8101031261047d57516001600160e01b03198116810361047d57905f61039b565b8380fd5b503d610452565b505083516339e3563760e11b815291820187905250fd5b5f88815260046020526040902080546001600160a01b031916905585835281815283832080545f190190556102c9565b8751633250574960e11b81528087018c90528790fd5b0101359050855f80610270565b858d528a8d208c9550929091601f1985168e5b8d82821061053f5750508511610524575b50505050811b019055610284565b5f1960f88660031b161c19920101351690555f808781610516565b8584019094013586558e9795909501948b939283019201610505565b91509150838b52888b20601f840160051c8101918a85106105a6575b918b859492601f8b950160051c01915b82811061059557505061025b565b8e81558695508a94508d9101610587565b9091508190610577565b634e487b7160e01b8952601184528489fd5b8680fd5b509034610174576020918260031936011261047d573583526008825280832081519384918181546105f681610d70565b926001918883821691825f1461067d57505060011461063c575b858861063889610629848a03601f198101865285610d32565b51928284938452830190610c5f565b0390f35b879695945082528582205b8383106106655750939492935050820101816106296106385f610610565b8054838a018801528796899550909201918101610647565b60ff19168882015285151590950287019094019450859350610629925061063891505f9050610610565b5050346101c657816003193601126101c6576020906007549051908152f35b509034610174576080366003190112610174576106e1610c9d565b6106e9610cb7565b60443591856064359567ffffffffffffffff87116101c657366023880112156101c6578601359561072561071c88610d54565b96519687610d32565b86865236602488830101116101c65786610757976024602093018389013786010152610752838383610dd4565b610fa9565b80f35b509034610174578060031936011261017457610774610c9d565b90602435918215158093036107f7576001600160a01b03169283156107e25750338452600560205280842083855260205280842060ff1981541660ff8416179055519081527f17307eab39ab6107e8899845ad3d59bd9653f200f220920489ca2b5937696c3160203392a380f35b836024925191630b61174360e31b8352820152fd5b8480fd5b5050346101c657816003193601126101c65780519082600180549161081f83610d70565b808652928281169081156108b6575060011461085a575b50505061084882610638940383610d32565b51918291602083526020830190610c5f565b94508085527fb10e2d527612073b26eecdfd717e6a320cf44b4afac2b0732d9fcbe2b7fa0cf65b82861061089e575050506108488260206106389582010194610836565b80546020878701810191909152909501948101610881565b61063897508693506020925061084894915060ff191682840152151560051b82010194610836565b5050346101c657816003193601126101c65760065490516001600160a01b039091168152602090f35b8334610964578060031936011261096457610920610da8565b600680546001600160a01b0319811690915581906001600160a01b03167f8be0079c531659141344cd1fd0a4f28419497f9722a3daafe3b4186f6b6457e08280a380f35b80fd5b509134610964576020366003190112610964576001600160a01b0361098a610c9d565b169283156109a75750806020938392526003845220549051908152f35b91516322718ad960e21b815291820152602490fd5b50913461096457602036600319011261096457506109dc60209235610f6f565b90516001600160a01b039091168152f35b5050346101c65761075790610a0136610ccd565b91925192610a0e84610d02565b858452610752838383610dd4565b833461096457610757610a2e36610ccd565b91610dd4565b509034610174578060031936011261017457610a4e610c9d565b91602435610a5b81610f6f565b33151580610afd575b80610ad4575b610abe576001600160a01b039485169482918691167f8c5be1e5ebec7d5bd14f71427d1e84f3dd0314c0f7b2291e5b200ac8c7c3b9258880a48452602052822080546001600160a01b031916909117905580f35b835163a9fbf51f60e01b81523381850152602490fd5b506001600160a01b03811686526005602090815284872033885290528386205460ff1615610a6a565b506001600160a01b038116331415610a64565b503461017457602036600319011261017457918260209335610b3181610f6f565b50825283528190205490516001600160a01b039091168152f35b5050346101c657816003193601126101c657805190828054610b6c81610d70565b808552916001918083169081156108b65750600114610b975750505061084882610638940383610d32565b80809650527f290decd9548b62a8d60345a988386fc84ba6bc95484008f6362f93160ef3e5635b828610610bdb575050506108488260206106389582010194610836565b80546020878701810191909152909501948101610bbe565b92505034610174576020366003190112610174573563ffffffff60e01b811680910361017457602092506380ac58cd60e01b8114908115610c4e575b8115610c3d575b5015158152f35b6301ffc9a760e01b1490505f610c36565b635b5e139f60e01b81149150610c2f565b91908251928382525f5b848110610c89575050825f602080949584010152601f8019910116010190565b602081830181015184830182015201610c69565b600435906001600160a01b0382168203610cb357565b5f80fd5b602435906001600160a01b0382168203610cb357565b6060906003190112610cb3576001600160a01b03906004358281168103610cb357916024359081168103610cb3579060443590565b6020810190811067ffffffffffffffff821117610d1e57604052565b634e487b7160e01b5f52604160045260245ffd5b90601f8019910116810190811067ffffffffffffffff821117610d1e57604052565b67ffffffffffffffff8111610d1e57601f01601f191660200190565b90600182811c92168015610d9e575b6020831014610d8a57565b634e487b7160e01b5f52602260045260245ffd5b91607f1691610d7f565b6006546001600160a01b03163303610dbc57565b60405163118cdaa760e01b8152336004820152602490fd5b6001600160a01b039182169290918315610f57575f92828452826020956002875260409684888820541696879133151580610ec1575b509060027fddf252ad1be2c89b69c2b068fc378daa952ba7f163c4a11628f55a4df523b3ef9284610e90575b858352600381528b8320805460010190558683525289812080546001600160a01b0319168517905580a41692838303610e6f5750505050565b6064945051926364283d7b60e01b8452600484015260248301526044820152fd5b5f87815260046020526040902080546001600160a01b0319169055848352600381528b832080545f19019055610e36565b91939450915080610f16575b15610edd5785929187915f610e0a565b878688610efa576024915190637e27328960e01b82526004820152fd5b604491519063177e802f60e01b82523360048301526024820152fd5b503387148015610f3b575b80610ecd5750858252600481523385898420541614610ecd565b5086825260058152878220338352815260ff8883205416610f21565b604051633250574960e11b81525f6004820152602490fd5b5f818152600260205260409020546001600160a01b0316908115610f91575090565b60249060405190637e27328960e01b82526004820152fd5b813b610fb6575b50505050565b604051630a85bd0160e11b8082523360048301526001600160a01b03928316602483015260448201949094526080606482015260209592909116939092908390611004906084830190610c5f565b039285815f958187895af18491816110ab575b50611076575050503d5f1461106e573d61103081610d54565b9061103e6040519283610d32565b81528091843d92013e5b8051928361106957604051633250574960e11b815260048101849052602490fd5b019050fd5b506060611048565b919450915063ffffffff60e01b160361109357505f808080610fb0565b60249060405190633250574960e11b82526004820152fd5b9091508681813d83116110e4575b6110c38183610d32565b810103126107f757516001600160e01b0319811681036107f757905f611017565b503d6110b956fea2646970667358221220e7d883847766d8320f12941da104a6bb6e95b6d06892fed824d242e24693cf5d64736f6c63430008140033",
    "sourcePath": "d:/workspace/_meat_project/_NFT-seller-bot/NFT-seller-bot-backend/contract/NFTBot.sol",
    "compiler": {
        "name": "solc",
        "version": "0.8.20+commit.a1b79de6"
    },
    "functionHashes": {
        "_lastTokenId()": "c4e9bad3",
        "approve(address,uint256)": "095ea7b3",
        "balanceOf(address)": "70a08231",
        "getApproved(uint256)": "081812fc",
        "isApprovedForAll(address,address)": "e985e9c5",
        "mint(address,string)": "d0def521",
        "name()": "06fdde03",
        "owner()": "8da5cb5b",
        "ownerOf(uint256)": "6352211e",
        "renounceOwnership()": "715018a6",
        "safeTransferFrom(address,address,uint256)": "42842e0e",
        "safeTransferFrom(address,address,uint256,bytes)": "b88d4fde",
        "setApprovalForAll(address,bool)": "a22cb465",
        "supportsInterface(bytes4)": "01ffc9a7",
        "symbol()": "95d89b41",
        "tokenURI(uint256)": "c87b56dd",
        "transferFrom(address,address,uint256)": "23b872dd",
        "transferOwnership(address)": "f2fde38b"
    },
    "gasEstimates": {
        "creation": {
            "codeDepositCost": "877000",
            "executionCost": "infinite",
            "totalCost": "infinite"
        },
        "external": {
            "_lastTokenId()": "2562",
            "approve(address,uint256)": "31130",
            "balanceOf(address)": "2606",
            "getApproved(uint256)": "4647",
            "isApprovedForAll(address,address)": "2933",
            "mint(address,string)": "infinite",
            "name()": "infinite",
            "owner()": "2495",
            "ownerOf(uint256)": "2569",
            "renounceOwnership()": "28256",
            "safeTransferFrom(address,address,uint256)": "infinite",
            "safeTransferFrom(address,address,uint256,bytes)": "infinite",
            "setApprovalForAll(address,bool)": "26690",
            "supportsInterface(bytes4)": "336",
            "symbol()": "infinite",
            "tokenURI(uint256)": "infinite",
            "transferFrom(address,address,uint256)": "106396",
            "transferOwnership(address)": "28544"
        }
    }
}